:020000040800F2
:1000000078490020E9020008F92300087D1F000854
:100010002123000843050008112E000800000000FD
:10002000000000000000000000000000290200089D
:10003000F5050008000000008502000831260008D0
:100040000303000803030008030300080303000878
:100050000303000803030008030300080303000868
:100060000303000803030008030300080303000858
:100070000303000803030008030300080303000848
:1000800045050008030300080303000803030008F4
:100090000303000803030008030300081506000813
:1000A0000303000803030008030300080303000818
:1000B00005270008030300080303000803030008E2
:1000C00003030008030300080303000803030008F8
:1000D0000303000803030008F92D0008052E00089B
:1000E000F7050008030300080303000803030008E2
:1000F00003030008030300080303000803030008C8
:1001000003030008030300080303000803030008B7
:1001100003030008030300080303000803030008A7
:100120000303000803030008030300080303000897
:100130000303000803030008030300080303000887
:100140000303000803030008030300080303000877
:100150000303000803030008030300080303000867
:100160000303000803030008030300080303000857
:100170000303000803030008030300080000000055
:10018000030300080303000800F002F800F03CF845
:100190000AA090E8000C82448344AAF10107DA45E2
:1001A00001D100F031F8AFF2090EBAE80F0013F0F8
:1001B000010F18BFFB1A43F001031847D04000009D
:1001C000F0400000103A24BF78C878C1FAD852072E
:1001D00024BF30C830C144BF04680C6070470000C1
:1001E0000023002400250026103A28BF78C1FBD840
:1001F000520728BF30C148BF0B6070471FB504F0DD
:1002000004F81FBD10B510BD00F061F91146FFF7ED
:10021000F5FF02F05FFE00F07FF903B4FFF7F2FF95
:1002200003BC00F087F900002C4B19680868B0E89F
:10023000F04F80F30988BFF36F8F4FF0000080F319
:10024000118870470000000008480068006880F3CB
:1002500008884FF0000080F3148862B661B6BFF3DF
:100260004F8FBFF36F8F00DF00BF00BF08ED00E0CE
:10027000DFF80C00016841F470010160704700BFB5
:1002800088ED00E0EFF30980BFF36F8F134B1A681E
:100290001EF0100F08BF20ED108A20E9F04F10600B
:1002A00009B44FF0500080F31188BFF34F8FBFF3B4
:1002B0006F8F03F097FA4FF0000080F3118809BCAC
:1002C00019680868B0E8F04F1EF0100F08BFB0ECD6
:1002D000108A80F30988BFF36F8F70475C0000209D
:1002E000EFF3058070470000094880470948004740
:1002F000FEE7FEE7FEE7FEE7FEE7FEE7FEE7FEE7D6
:10030000FEE7FEE704480549054A064B7047000032
:10031000F52600088901000878430020784900206C
:10032000784500207845002053EA020C00F06980EF
:100330002DE9F04B4FF00006002B1FBFB3FA83F5F9
:1003400003FA05F424FA05F65E4012BF1643B2FA2A
:1003500082F502FA05F4C5F120051EBF22FA05FC5C
:1003600044EA0C04203556EA044C4FEA144418BF02
:10037000641C4FF000084FF00009904271EB030C31
:1003800039D3002919BFB1FA81F701FA07F6B0FA9B
:1003900080F700FA07F6C7F120071EBF20FA07FC16
:1003A00046EA0C062037B6FBF4FCA7EB0507103F26
:1003B00007F01F0BCBF120060CFA0BFB2CFA06F60C
:1003C00044BFB3460026202FA4BF5E464FF0000B6B
:1003D0005BEA060C08BF4FF0010B19EB0B09ABFBF6
:1003E000027C48EB0608C01B06FB02CC0BFB03CCCF
:1003F00071EB0C01C1E70B46024641464846BDE899
:10040000F08B13B54FF000004FF00001AFF3008008
:10041000BDE81C40704710B5203AC0F00B80B1E831
:100420001850203AA0E81850B1E81850A0E8185029
:10043000BFF4F5AF5FEA027C24BFB1E81850A0E832
:10044000185044BF18C918C0BDE810405FEA827C4C
:1004500024BF51F8043B40F8043B08BF7047D20763
:1004600028BF31F8023B48BF11F8012B28BF20F804
:10047000023B48BF00F8012B70474FF0000200B567
:10048000134694469646203922BFA0E80C50A0E8B7
:100490000C50B1F12001BFF4F7AF090728BFA0E865
:1004A0000C5048BF0CC05DF804EB890028BF40F831
:1004B000042B08BF704748BF20F8022B11F0804F73
:1004C00018BF00F8012B704770477047704775469A
:1004D00000F02CF8AE4605006946534620F00700B0
:1004E000854618B020B5FFF70DFFBDE820404FF05E
:1004F00000064FF000074FF000084FF0000B21F00E
:100500000701AC46ACE8C009ACE8C009ACE8C009DA
:10051000ACE8C0098D46704710B50446AFF30080C3
:100520002046BDE81040FFF778BE00000048704745
:100530001443002001491820ABBEFEE7260002004C
:100540007047FEE7014800F0DBB80000100400200F
:1005500001681823CAB2103AB2FBF3F2054B6FF3ED
:100560000901032A9B5CC36500D9091D8165084602
:10057000704700005842000810B5014600208B6902
:100580008A6A4FF0C07453B1B3F5005F15D072B1F1
:10059000012A0CD0022A0AD0032A09D104E01AB198
:1005A000012A06D0022A03D1C96AC90100D5012057
:1005B00010BDC96AA142FAD010BD002AF7D0012AA5
:1005C000F2D0022AF3D0032AF3D010BD30B504686C
:1005D000256825F480252560046863608368402BC6
:1005E000036803D099600068C26030BD9A600068FB
:1005F000C16030BD704710B54FF4806000F02EFA36
:100600004FF4805000F02AFABDE810404FF400404B
:1006100000F024BA4FF4807000F020BA72B603499B
:100620000868002200B20A6062B6704754000020D9
:1006300072B603494868002200B24A6062B6704749
:100640005400002072B6FEE72DE9F0410446876DA4
:1006500000F008FB064694F835000025022806D075
:100660008020606584F834500120BDE8F081206866
:10067000016821F0160101602068416921F08001C4
:100680004161206C08B9A06C20B12068016821F09C
:10069000080101602068016821F0010101600CE09F
:1006A00000F0E0FA801B052807D9202060650320B0
:1006B00084F8350084F83450D7E720680068C00714
:1006C000EED194F85C103F208840B860012084F897
:1006D000350084F834500020C7E790F8351002291F
:1006E00003D08021416501207047052180F8351035
:1006F0000068016821F001010160002070470000DE
:100700002DE9F84304464FF00009CDF80090634806
:100710004FF41651A56D0068B0FBF1F72E6894F800
:100720005C10082000FA01F131420FD021680A68FC
:1007300052070BD50A6822F004020A6094F85C1094
:100740008840A860606D40F00100606594F85C101E
:100750004FF0010808FA01F0304208D021684969D9
:10076000090604D5A860606D40F00200606594F849
:100770005C1004208840304208D02168096889074D
:1007800004D5A860606D40F00400606594F85C10CA
:1007900010208840304218D021680968090714D514
:1007A000A86020680168490304D50068000308D5E3
:1007B000A16C07E00168C90503D4016821F00801B4
:1007C0000160216C09B12046884794F85C10202014
:1007D0008840304231D021680968C9062DD5A8600B
:1007E00094F8350005282068016806D0490347D5EC
:1007F000006800031DD4616C1CE021F0160101604B
:100800002068416921F080014161206C08B9A06C29
:1008100020B12068016821F00801016094F85C10A3
:100820003F208840A86084F8358084F83490216D9A
:100830001FE0E16B09B120468847606D00282BD08E
:10084000606DC00714D0052084F835002068016869
:1008500021F0010101600098401C0090B84203D8CB
:1008600020680068C007F6D184F8358084F8349099
:10087000E16C002910D001B02046BDE8F0430847E4
:100880000168C905D5D4016821F01001016084F820
:10089000358084F83490CCE7BDE8F883240000204C
:1008A0002DE9F041044600F0DDF906465CB1022076
:1008B00084F83500002584F834502068016821F060
:1008C000010101600DE00120BDE8F08100F0CAF9EE
:1008D000801B052805D920206065032084F8350099
:1008E000F2E720680068C007F0D12268116820484C
:1008F0000140D4E901031843D4E9033633431843D4
:1009000063691843A3691843E3691843236A1843CA
:100910000843616A042903D1D4E90B13194308433E
:10092000106020684069666A20F0070130460E4377
:10093000012704280CD1A06A0643E06A40B1204692
:10094000FFF71AFE20B14020606584F83570BAE7E1
:10095000206846612046FFF7FBFD94F85C203F21AC
:1009600091408160656584F835700020ACE7000037
:100970003F8010F02DE9F0410446866D90F8340078
:10098000002501280DD0012084F8340094F835703A
:100990000020012F07D084F8340002252846BDE846
:1009A000F0810220FBE7022784F83570606520465D
:1009B000FFF70CFE94F85C103F208840B060206880
:1009C000016841F016010160206C20B120680168C7
:1009D00041F0080101602068016841F001010160F7
:1009E000DCE700001B490A691B49B0F5807F11D084
:1009F000B0F5806F17D0B0F5805F20D0B0F5004F14
:100A000010D1C2F30030C2F3C03290421DD048680A
:100A1000401E1CE0C2F30020C2F38022904208D0A6
:100A20000AE008607047C2F30023C2F380208342CB
:100A300002D00868401CF4E70868401EF1E7C2F3E2
:100A40000030C2F3C0329042E1D04868401C486098
:100A5000704700000010024054000020044910B507
:100A60000A68024202D00860FFF7BCFF10BD000018
:100A7000143C01402DE9F84FDFF8BCA1002201250C
:100A800003264FF00F090AF1040BAAF1040E00BF70
:100A90000B6805FA02F42340A34270D10F7907F0E6
:100AA0000307012F01D0022F16D187684FEA4208B1
:100AB00006FA08FC27EA0C07D1F80CC00CFA08FC6F
:100AC0004CEA070CC0F808C04768A7430C79C4F388
:100AD000001494403C4344600C79E443A4070AD0DA
:100AE000C4684FEA420C06FA0CF7BC438F6807FA59
:100AF0000CF72743C7600C7904F00304022C12D1D1
:100B0000D40800EB840CDCF820405707FF0E09FAEC
:100B100007F824EA0804D1F8108008FA07F848EA30
:100B20000408CCF8208004684FEA420C06FA0CF75F
:100B3000BC430F7907F0030707FA0CF72743076058
:100B40004C6814F4403F70D03C4C276847F4804711
:100B50002760246822F0030704F480440094384C92
:100B600007EB040CDCF8084897074FEA177809FAF6
:100B700008F7BC43334FB84202D1002724E054E0C9
:100B8000314FB84201D101271EE0304FB84201D1A8
:100B9000022719E02E4FB84201D1032714E02D4F50
:100BA000B84201D104270FE02B4FB84201D10527ED
:100BB0000AE02A4FB84201D1062705E0284FB84283
:100BC00001D1072700E0082707FA08F72743CCF8E8
:100BD0000878DAF800405746D1F804C09C435FEA31
:100BE000CC2C00D51C433C60DBF800405F46D1F8BC
:100BF00004C09C435FEA8C2C00D51C433C60DEF8AB
:100C000000407746D1F804C09C435FEA8C3C00D595
:100C10001C433C60084F083F3C68D1F804C09C432B
:100C20005FEACC3C00D51C433C60521C102AFFF408
:100C30002FAFBDE8F88F0000083C01404438024067
:100C40000030014000000240000402400008024061
:100C5000000C024000100240001402400018024044
:100C6000001C024001488068704700001800002006
:100C700002488168027811448160704718000020A2
:100C80000B4810B5016841F400710160016841F43E
:100C900080610160016841F480710160032000F00F
:100CA0009FF80F2000F006F800F050F8002010BD6B
:100CB000003C024030B50546204887B0002401685A
:100CC00041F001010160006806A900F001000090F8
:100CD00001A800F031F90498B0B100F04DF94000DE
:100CE00017494FF08042B0FBF1F11648491E0260EF
:100CF00040F2E732C0E90324C0E90114846100F046
:100D0000B7FB040003D015E000F036F9E8E70D4822
:100D100000F02CFC04000DD11C2000F033F8102D45
:100D200007D2002229461C2000F03AF80648056048
:100D300000E0012407B0204630BD000040380240EA
:100D400040420F00700400201C0000200C4882B0BC
:100D5000016841F480410160006800F48040009027
:100D60000748001F016841F08051016000680022BF
:100D700000F0805000900F21901E02B000F010B8DB
:100D800044380240002809DB00F01F020121914095
:100D90004009800000F1E020C0F800117047000019
:100DA000F0B40E4B1B680C46C3F30223C3F10705D6
:100DB000042D00D90425191D072901D2002300E0C4
:100DC000DB1E012606FA05F1491E214099409E408E
:100DD000761E16403143F0BC02F01BB80CED00E06B
:100DE000064900F0070208684FF6FF03184040EA82
:100DF0000220034A10430860704700000CED00E039
:100E00000000FA052DE9F0470E46050065D0DFF831
:100E10001481D8F80000F7B200F00700B04207D202
:100E200088F80070D8F8000000F00700B04254D1F4
:100E300028683D4C810712D5400703D5206840F44F
:100E4000E05020602878000703D5206840F4604017
:100E500020602068A96820F0F0000843206028780E
:100E6000C0072DD0304968680839012812D00228FF
:100E700013D0032811D00968890700292DDA2168C9
:100E800021F0030101432160FFF7ECFE814641F2AE
:100E9000883A0EE009688903EFE709688901ECE701
:100EA000FFF7E0FEA0EB0901514502D90320BDE8A0
:100EB000F0872068696800F00C00B0EB810FEFD17B
:100EC000D8F80010404601F00701B14207D9077079
:100ED000006800F00700B04201D00120E7E7287861
:100EE000400705D52068E96820F4E05008432060F9
:100EF0002878000706D52068296920F4604040EA78
:100F0000C100206000F058F82168084AC1F30311BD
:100F1000515CC8400649086006480068FFF7CAFEF1
:100F20000020C4E7003C024008380240604200084C
:100F3000240000201C0000200F2202600C4A1368CD
:100F400003F003034360136803F0F0038360136846
:100F500003F4E053C36012684FF4E05303EAD20293
:100F600002610448006800F0070008607047000054
:100F700008380240003C02400448054900680968FE
:100F8000044AC1F38221515CC8407047240000200C
:100F900008380240704200080448054900680968A2
:100FA000044AC1F34231515CC8407047240000201C
:100FB0000838024070420008154810B5006810F06B
:100FC0000C02144813D01449042A0FD0082A0ED159
:100FD0000F4C241F2268236802F03F025B0207D5F2
:100FE0002068C0F38810A0FB010106E0084610BD90
:100FF0002168C1F38811A1FB00010023FFF794F9D8
:101000002168C1F30141491C4900B0FBF1F010BD5A
:10101000083802400024F40040787D012DE9F84FA3
:1010200004006ED02078DFF84C93C007A9F10405C6
:101030004AD009F104000168C1F38101012908D0F7
:101040000068C0F3810002280AD1D9F800004002EC
:1010500006D52868800337D560680028E1D033E0E2
:101060006068B0F5803F10D0B0F5A02F286810D090
:1010700020F480302860286820F480202860606890
:10108000A8B1FFF7EFFD06460DE0286840F4803078
:10109000F4E740F480202860F7E700BFFFF7E2FDA7
:1010A000801B642873D828688003F7D50CE0FFF70D
:1010B000D9FD064605E000BFFFF7D4FD801B64287C
:1010C000F0D828688003F7D42078DFF8AC82800756
:1010D0004FF0000A3ED5A748001D016811F00C0F23
:1010E00008D00068C0F3810002280BD1D9F80000B5
:1010F000400207D42868800716D5E068012800D18F
:1011000012E033E1E068B8B10120C8F80000FFF751
:10111000A9FD064605E000BFFFF7A4FD801B0228DD
:10112000C0D828688007F7D52868216920F0F80022
:1011300040EAC10028600DE0C8F800A0FFF792FD6A
:10114000064604E0FFF78EFD801B02281FD82868A2
:101150008007F7D42078000722D5864F8748616939
:10116000703771B101210160FFF77CFD064604E094
:10117000FFF778FD801B022809D838688007F7D56B
:101180000EE0C0F800A0FFF76DFD064605E082E026
:10119000FFF768FD801B02287DD838688007F7D4E8
:1011A0002078400768D5DFF8CCB100270BF13C0B65
:1011B000DBF80000C0000BD4DBF8001041F08051D8
:1011C000CBF80010DBF80000012700F08050009001
:1011D0006B4E3068C00510D4306840F480703060C9
:1011E000FFF740FD009005E0FFF73CFD0099401A35
:1011F000022850D83068C005F6D55E4EA0686C361F
:1012000001280FD00528306810D020F00100306090
:10121000306820F004003060A068B8B1FFF722FD0C
:1012200000900FE0306840F00100F4E740F0040067
:101230003060F7E7FFF716FD0099411A41F2883058
:10124000814266D830688007F4D50EE0FFF70AFDCA
:10125000009007E0FFF706FD0099411A41F288303F
:10126000814256D830688007F4D42FB1DBF80010E3
:1012700021F08051CBF80010A069C8B33D49091D89
:101280000968C1F3810102294AD00228504607D0DB
:10129000C8F8600000E03CE0FFF7E4FC04463BE0F7
:1012A0004746C8F86000FFF7DDFC064605E000BFD2
:1012B000FFF7D8FC801B02282BD828688001F7D4C0
:1012C000D4E907010843A16A2E4A490802EB01410B
:1012D000626A41EA8211084394F82C1040EA0161E5
:1012E000C9F8001001203866FFF7BCFC044606E090
:1012F0003EE000BFFFF7B6FC001B022809D82868B3
:101300008001F7D534E000BFFFF7ACFC001B0228DA
:1013100002D90320BDE8F88F28688001F4D427E0C3
:101320000128F7D0D9F80000E26900F48001914269
:101330001CD1226A00F03F01914217D147F6C071DB
:10134000626A0140B1EB821F10D1A26A4FF0FF33F5
:1013500000F4403103EB5202B1EB024F06D194F896
:101360002C1000F07060B0EB016F01D00120D1E7CC
:101370000020CFE70438024000004742800E474279
:10138000007000400000FFFF7047704710B590F8F4
:101390003C20012A22D0012280F83C20CA688C68B7
:1013A00022F4407222434C6822F4806222430C688B
:1013B00022F4006222430C6922F4805222434C69D9
:1013C00022F400522243C969002322F480420A43D6
:1013D00001684A6480F83C30002010BD022010BD36
:1013E00070B590F83C20012A32D0012480F83C40AE
:1013F000022280F83D2003685A689D6822F070063A
:101400000A6832435A60134B02689A4214D0B2F110
:10141000804F11D0104B9A420ED0104B9A420BD0F5
:101420000F4B9A4208D00F4B9A4205D00E4B9A426E
:1014300002D00E4B9A4204D1496825F0800319432B
:10144000916080F83D40002180F83C10084670BD56
:10145000022070BD00000140000400400008004070
:10146000000C004000040140004001400018004012
:1014700010B5040003D094F83D0010B107E001203E
:1014800010BD002084F83C00204600F01FF8022028
:1014900084F83D00211D206801F03AF9012084F80C
:1014A000460084F83E0084F83F0084F8400084F849
:1014B000410084F8420084F8430084F8440084F832
:1014C000450084F83D00002010BD000008B500680C
:1014D0000649884208D10648016841F001010160CF
:1014E000006800F00100009008BD0000000001400D
:1014F0004438024090F83D10012901D00120704786
:10150000022180F83D1000681149884214D0B0F1E2
:10151000804F11D00F4988420ED00F4988420BD01E
:101520000E49884208D00E49884205D00D498842AC
:1015300002D00D49884204D1816801F007010629D3
:1015400003D0016841F001010160002070470000F4
:10155000000001400004004000080040000C004072
:1015600000040140004001400018004090F83D1088
:10157000012901D001207047022180F83D10016847
:10158000CA6842F00102CA6000681149884214D05A
:10159000B0F1804F11D00F4988420ED00E498842D9
:1015A0000BD00E49884208D00D49884205D00D491C
:1015B000884202D00C49884204D1816801F00701B9
:1015C000062903D0016841F0010101600020704745
:1015D000000001400004004000080040000C0040F2
:1015E00000040140004001400018004070B504466E
:1015F00090F83C000025012817D0012684F83C60B3
:10160000022084F83D002068826822F0770222F4EC
:101610007F4282600868502838D00DDC20284FD0E7
:1016200005DC90B3102811D14AE0022070BD3028AB
:1016300046D040280AD13BE060282FD070280DD03A
:10164000B0F5805F03D0B0F5005F12D0012584F8BB
:101650003D60002084F83C00284670BDCB68D1E98D
:101660000121206801F0C9F82068816841F0770104
:1016700009E0CB68D1E90121206801F0BEF82068BB
:10168000816841F480418160E1E719E0CA684968F6
:10169000206801F087F95021206806E0CA6849688F
:1016A000206801F090F96021206801F0B0F8CEE7E1
:1016B000CA684968206801F075F940212068F4E79C
:1016C000226801461046F0E770472DE9F0410446D4
:1016D0000068C66805694FF00007A90713D5B10770
:1016E00011D5F91E016101202077206880698007EB
:1016F000204602D0FFF7E8FF04E000F0A9F82046FA
:1017000000F03BF92777680716D5700714D52168D4
:101710006FF004000861022020772068806910F4CF
:10172000407F204602D0FFF7CFFF04E000F090F8A2
:10173000204600F022F92777280715D5300713D562
:1017400021686FF008000861042020772068C069D4
:101750008007204602D0FFF7B7FF04E000F078F8DA
:10176000204600F00AF92777E80616D5F00614D5CA
:1017700021686FF010000861082020772068C06998
:1017800010F4407F204602D0FFF79EFF04E000F0F7
:101790005FF8204600F0F1F82777E80708D0F00757
:1017A00006D021686FF001000861204600F04AF978
:1017B000280608D5300606D521686FF0800008613C
:1017C0002046FFF7E1FD680608D5700606D52168BA
:1017D0006FF040000861204600F03BF9A8060AD5EA
:1017E000B00608D521686FF0200008612046BDE8EA
:1017F000F041FFF7CABDBDE8F081000010B586B02A
:10180000044614216846FEF738FE0E4920688842D7
:1018100016D10D480021026842F0100202600068F3
:1018200000F0100005904FF4D44000900220CDE964
:1018300001010120CDE9031069460448FFF71AF9B8
:1018400006B010BD000001403038024000100240D8
:10185000704770B5044690F83C0000260D460128FC
:101860000FD0012084F83C006AB1042A1DD0082A58
:101870002FD00C2A3FD00126002084F83C003046AF
:1018800070BD022070BD206800F0CAFF2068816929
:1018900041F0080181612068816921F004018161C2
:1018A000206881692A69114311E0206800F0E8FF8F
:1018B0002068816941F4006181612068816921F4B7
:1018C00080618161206881692A6941EA0221816120
:1018D000D2E7206801F00AF82068C16941F00801E8
:1018E000C1612068C16921F00401C1612068C1693A
:1018F0002A69114311E0206801F02CF82068C169C1
:1019000041F40061C1612068C16921F48061C16155
:101910002068C1692A6941EA0221C161ACE710B5BA
:10192000040003D094F83D0010B107E0012010BD81
:10193000002084F83C00204600F01EF8022084F8C5
:101940003D00211D206800F0E3FE012084F84600E0
:1019500084F83E0084F83F0084F8400084F8410099
:1019600084F8420084F8430084F8440084F8450079
:1019700084F83D00002010BD7047704710B5044644
:10198000022249B104290ED0082913D094F841004D
:10199000012816D0012010BD94F83E000128F9D18D
:1019A00084F83E200FE094F83F000128F2D184F83B
:1019B0003F2008E094F840000128EBD184F8402053
:1019C00001E084F841200122206800F009FF164957
:1019D0002068164A884201D0904203D1436C43F4F8
:1019E000004343642068884213D0B0F1804F10D088
:1019F0000F4988420DD00F4988420AD00E498842CB
:101A000007D0904205D00D49884202D00C49884247
:101A100004D1816801F00701062903D0016841F073
:101A200001010160002010BD0000014000040140E0
:101A30000004004000080040000C0040004001404D
:101A4000001800400068B0F1804F01D1FFF710B9D5
:101A50007047704738B5044690F84200202801D0FE
:101A6000022038BD51B14AB10120206300206063DB
:101A7000204601F055F9216B012901D0012038BD24
:101A800021680A684968009121680C3151E8002FEB
:101A900042F0100241E80023002BF5D138BD0000D0
:101AA00010B50068074988420AD10B220649074849
:101AB000FFF7D0FFBDE810400549034800F060BAC9
:101AC00010BD000000440040C4000020800300203E
:101AD000B804002010B50068074988420AD10B22DB
:101AE00006490748FFF7B6FF04480021016041603E
:101AF0000181817210BD000000440040C40000203C
:101B000080030020F8B5016804460868CA684B697C
:101B100010F00F0F4FF0000559D003F0010602F44A
:101B20009077374365D0C10705D0D10503D5616CE7
:101B300041F001016164410705D5D90703D0616C0B
:101B400041F002016164810705D5D90703D0616CBA
:101B500041F004016164010707D502F0200131431F
:101B600003D0616C41F008016164616C00293AD0D6
:101B7000800604D5900602D5204600F0E9FF2068D3
:101B80004069616CC0F38010090700D460B320463F
:101B900000F0A9FF20684069400621D52068143074
:101BA00050E8001F21F0400140E80012002AF5D162
:101BB000E06BA8B172490165E06BFEF78EFD00286D
:101BC00011D0E06B016D01B0BDE8F040084783061D
:101BD0000FD593060DD52046BDE8F84000F0B8BFFC
:101BE0002046FFF777FFF8BD2046FFF773FF6564D7
:101BF000F8BD266B2023012E7ED1C6067CD5D606E5
:101C00007AD508684868009048694FF00206400697
:101C10004DD5E26B106840684FF480770004000CEB
:101C20003AD0A18D814237D9E085D069B8422DD014
:101C300020680C3050E8001F21F4807140E8001249
:101C4000002AF5D12068143050E8001F21F001016E
:101C500040E80012002AF5D12068143050E8001F37
:101C600021F0400140E80012002AF5D184F842300A
:101C7000256320680C3050E8001F21F0100140E877
:101C80000012002AF5D1E06BFEF7DEFC6663A08D42
:101C9000E18D401A81B206E0A18D8142A8D1D069C0
:101CA000B842A5D166632046FFF7FAFEF8BDA08DC5
:101CB000E18D401A81B2E08D0028F7D00029F5D0DF
:101CC00020680C3050E8002F22F4907240E8002782
:101CD000002FF5D12068143050E8002F22F00102C7
:101CE00040E80027002FF5D184F8423025632068B2
:101CF0000C3050E8002F00E006E022F0100240E82F
:101D00000023002BF3D1CDE705062BD5150629D5E9
:101D100094F841002128C9D1A068B0F5805F01D1B5
:101D20002069B0B1206A411C2162216800784860B6
:101D3000E08C401E0004000CE084B7D12068C1682C
:101D400021F08001C1602068C16841F04001C1609C
:101D5000F8BD206A0088C0F308004860206A801C33
:101D60002062E5E74006F3D55006F1D5CA68204663
:101D700022F04002CA6084F8413000F0FEF8F8BD5D
:101D8000EB29000870B5040004D094F84100002548
:101D900010B106E0012070BD84F84050204600F0EC
:101DA00023F8242084F841002068C16821F4005100
:101DB000C160204600F02EFF2068016921F49041A7
:101DC00001612068416921F02A0141612068C168F0
:101DD00041F40051C1606564202084F8410084F81A
:101DE00042006563002070BDF0B587B0064614213F
:101DF0006846FEF742FB3749DFF8D4C03768002554
:101E000034481039022203230724674539D1076873
:101E100047F400370760006800F400300590086858
:101E200040F001000860086802AF00F00100059072
:101E30000C20CDE90002012087E8190069462648F8
:101E4000FEF718FE264C254820604FF00060C4E9DC
:101E500001054014C4E903506561C001A561C4E9EE
:101E6000075020466562FEF71BFD08B1FEF7EAFB4E
:101E7000F463002205212620A663FEF791FF2620A9
:101E800022E0184EB74221D1066846F4802606604B
:101E9000006800F480200590086840F008000860A1
:101EA0000868694600F0080005904FF440708DE81E
:101EB0002500CDE903340C48FEF7DCFD00220521A6
:101EC0002720FEF76DFF2720FEF75CFF07B0F0BD6F
:101ED0000044004040380240000002408860024058
:101EE0001004002000480040000C024090F84230EE
:101EF000202B01D00220704721B11AB100230363C7
:101F000000F05EBF0120704730B400681749884276
:101F10002AD117480023C21D0178012439B14D1E72
:101F2000042D0AD283785354491C017015E081783E
:101F3000AA2911D1117004700FE005290DD1817803
:101F4000FF2909D1517144705178C17091780171A4
:101F5000D17841711179817103700549012230BC3A
:101F6000891C0448FFF7C2BF30BC704700480040DE
:101F700008000020C803002070477047FEE70000FB
:101F80000278552A0CD142789FED470ADFED470AC7
:101F90009FED471A512A05D0522A2AD0532A5CD0E5
:101FA00000207047B0F9022001EE902AF8EEE11A05
:101FB00021EE802AF3EE001A22EE212A81ED062A74
:101FC000B0F9042002EE102AB8EEC22A22EE002A4E
:101FD00022EE212A81ED072AB0F9062002EE102A0E
:101FE000B8EEC22A22EE000A20EE210A81ED080A8C
:101FF00025E0B0F9022001EE902AF8EEE11A21EE78
:10200000802ADFED2C1A22EE212A81ED032AB0F975
:10201000042002EE102AB8EEC22A22EE002A22EE96
:10202000212A81ED042AB0F9062002EE102AB8EE2A
:10203000C22A22EE000A20EE210A81ED050AB0F93B
:10204000082000EE102AB8EEC00AC0EE201A31EEC9
:10205000810A81ED090A40787047B0F9022001EE4B
:10206000902AF8EEE11A21EE802ADFED131A22EE13
:10207000212A81ED002AB0F9042002EE102AB8EEE0
:10208000C22A22EE002A22EE212A81ED012AB0F98D
:10209000062002EE102AB8EEC22A22EE000A20EE36
:1020A000210A81ED020ACAE7000000380000AA43B5
:1020B000000011420000FA4400003443094808B50A
:1020C000016841F4001101600068002200F4001072
:1020D000009006211020FEF763FEBDE808401020A6
:1020E000FEF750BE3038024010B58EB01C220B49AE
:1020F0006846FEF790F90021684600F041FF084C61
:1021000006491C2220601C3107A8FEF784F9002133
:1021100007A800F035FF60600EB010BD2042000837
:102120000000002000B587B014216846FEF7A5F92D
:102130001F48016841F080010160016801F08001E1
:102140000591016841F001010160016801F00101A0
:102150000591016841F010010160016801F0100172
:102160000591016841F0080101600068694600F0CE
:10217000080005904FF4154000904FF44410019072
:10218000012002900B48FEF775FC00220221172067
:10219000FEF706FE1720FEF7F5FD0022022128209B
:1021A000FEF7FEFD2820FEF7EDFD07B000BD0000A4
:1021B000303802400010024010B596B000240F9451
:1021C00010941194129413941C2168461494FEF7F1
:1021D00054F9202107A8FEF750F934483249C0E9E4
:1021E000001441F61F41C0E9024104614461846169
:1021F000FFF73EF908B1FEF725FA4FF480500F9033
:102200000FA92A48FFF7F2F908B1FEF71BFA274891
:10221000FFF785FB08B1FEF715FA139413A92348BD
:102220001494FFF7DDF808B1FEF70CFA6020CDE951
:1022300000040294039404940594002269461B4808
:102240000694FFF706FB08B1FEF7FCF90422694685
:102250001648FFF7FEFA08B1FEF7F4F908226946BE
:102260001248FFF7F6FA08B1FEF7ECF90C226946BE
:102270000E48FFF7EEFA08B1FEF7E4F90794089468
:1022800009944FF400500A94CDE90B4007A9074880
:102290000E94FFF77BF808B1FEF7D4F90348FFF777
:1022A000ADFA16B010BD0000000001403803002058
:1022B0000C4810B50A4901604FF4E131416000213A
:1022C00081600C22C160C0E904128161C161FFF725
:1022D00059FD002803D0BDE81040FEF7B3B910BD8A
:1022E00000440040800300200C4810B50A490160FA
:1022F0004FF4E1314160002181600C22C160C0E9EE
:1023000004128161C161FFF73DFD002803D0BDE8E3
:102310001040FEF797B910BD00480040C8030020E8
:10232000FEE700001048B5EEC00AB0F90000F1EE7B
:1023300010FA00EE900AF8EEE00A02DD30EE200A14
:1023400001E030EE600ABDEEC00A10EE100A00B2E5
:10235000B0F5E15F02DB41F61F40704710F5E15F29
:10236000FBDC02487047000028000020E1E3FFFF8B
:1023700010B50A48FFF7BEF800210848FFF7FEFA3B
:1023800004210648FFF7FAFA08210448FFF7F6FA95
:10239000BDE810400C210148FFF7F0BA38030020D7
:1023A00010B5B1EE400A2DED028BB0EE608AFFF75A
:1023B000B9FF0446B0EE480AFFF7B4FF0D4900220A
:1023C000002C0B6803DB5C630B689A6303E05A63C1
:1023D00063420C68A3630B68002805DBD8630868B8
:1023E0000264BDEC028B10BDDA63096840420864E8
:1023F000F7E7000038030020FEE7000000B530EEEC
:10240000C01A80ED080AC0ED050A80ED0B1AD0ED68
:10241000141A01469FED692A30EEC00AF5EEC01A83
:10242000B1EE400AF1EE10FA0ED0B5EEC01AF1EEA0
:1024300010FA02DDF0EE410A01E0F0EE400AF4EE9F
:10244000E10AF1EE10FA12DCD1ED150AF5EEC00A40
:10245000F1EE10FA0ED0B5EEC01AF1EE10FA01DD71
:10246000B0EE410AB4EEE00AF1EE10FA02D2B0EE9C
:10247000420A00BD886D01F13402032802D004280D
:1024800038D07AE091ED000A104620EE010A81ED85
:102490000C0A91ED0D0AD1ED010A00EE810A81EDE1
:1024A0000D0A91ED0A0AD1ED020A31EE400A20EE42
:1024B000200A81ED0E0A91ED180AB8EE400A00F0EC
:1024C000B8FC91ED0C0AD1ED0D0A01F13C0030EEA3
:1024D000200AD1ED0E0A30EE200A81ED0F0A91EDAF
:1024E000170AB8EE400A00F0A4FC91ED0F0A81ED46
:1024F000100A42E091ED0A0AD1ED001A104671EE81
:10250000400A60EEA10AC1ED0C0AD1ED010A60EEAD
:10251000810AC1ED0D0AF0EE000A00EE601A91ED9D
:10252000090AD1ED020A31EE000A20EE200A81EDFF
:102530000E0A91ED180AB8EE400A00F07AFC91ED0F
:102540000C0AD1ED0D0A01F1480030EE200AD1ED60
:102550000E0A30EE200A81ED110AD1ED130A30EE99
:10256000800A81ED120A91ED170AB8EE400A00F0D8
:1025700060FC91ED120A81ED130A91ED0A0A81EDDA
:10258000090A91ED0B0A81ED0A0A91ED070A81ED26
:10259000060A91ED080A81ED070A91ED040A81ED22
:1025A000030A91ED050A81ED040A886D032802D023
:1025B00091ED120A00BD91ED0F0A00BD0000000070
:1025C00000F1580C8CE80E0080EC030A704780EC98
:1025D000030A704730B4034C4466034C846630BC35
:1025E000FFF7EEBFC1250008CF2500082DED028BB7
:1025F000B7EE008A0B4D0C4E0C4C287828B994EDA0
:10260000000A30EE480A84ED000A307828B994EDCB
:10261000000A30EE080A84ED000A322000F0A4FC23
:10262000EBE700000D0000200E0000203800002025
:1026300010B5502080F31188BFF34F8FBFF36F8F19
:1026400001F0D0F918B104494FF080500860002023
:1026500080F3118810BD000004ED00E030B593B0A8
:1026600030216846FDF709FF14210CA8FDF705FF8E
:102670001E480025016841F080510160006800F0AB
:10268000805011901A48016841F48041016000684F
:10269000022400F480401190012000900004019079
:1026A0008001CDE90640192008904FF4A870CDE9CB
:1026B000090404200B906846FEF7B0FC08B172B61E
:1026C000FEE70CA90F2081E831004FF4A0500F90D5
:1026D0004FF48050109005210CA8FEF793FB0028C2
:1026E00001D072B6FEE713B030BD000040380240A2
:1026F000007000400248016841F4700101607047B9
:1027000088ED00E00148FEF7E0BF00007004002003
:10271000F0B50268274B284D284E294F294C4FF021
:10272000804C984209D0604507D0A84205D0B042FD
:1027300003D0B84201D0A04204D122F0700E4A6802
:1027400042EA0E0298421BD0604519D0A84217D029
:10275000B04215D0B84213D0A04211D01A4DA842B1
:102760000ED01A4DA8420BD0194DA84208D0194DD1
:10277000A84205D0184DA84202D0184DA84203D156
:1027800022F44075CA682A434D6922F080022A4328
:102790008D68C5620D688562984201D0A04201D162
:1027A00009690163016841F004010160012141618F
:1027B0000260F0BD0000014000040040000800403D
:1027C000000C004000040140004001400044014072
:1027D0000048014000180040001C0040002000405C
:1027E00010B501F01F030121046A99408C43046273
:1027F000016A9A401143016210BD10B5846842EA33
:10280000032224F47F440A432243826010BD82687D
:1028100022F070020A4342F0070181607047000015
:10282000F0B5036A026A22F001020262426884691A
:10283000124E24F073050C682C4323F002058B68BC
:102840002B430D4DA84201D0B04205D123F008071B
:10285000CB683B4323F00403A84201D0B04205D12A
:102860004D6922F4407215438A692A4342608461AB
:10287000496841630362F0BD00000140000401406B
:10288000F0B5026A036A23F01003036243688469A7
:102890000D6824F4E64444EA05248D6822F0200201
:1028A00042EA05120F4D104EA84201D0B04206D1A7
:1028B000CF6822F0800242EA071222F04002A842CA
:1028C00001D0B04207D14D6923F4406343EA850348
:1028D0008D6943EA850343608461496881630262CC
:1028E000F0BD00000000014000040140F0B5026AA4
:1028F000036A23F4807303624368C46922F400729C
:1029000024F073050C68124E2C438D6842EA0522B0
:102910000E4DA84201D0B04206D1CF6822F4006229
:1029200042EA072222F48062A84201D0B04207D1D5
:102930004D6923F4405343EA05138D6943EA0513B7
:102940004360C4614968C1630262F0BD0000014098
:102950000004014030B5046A026A22F48052026227
:102960004268C3690D6823F4E64343EA05238D6892
:1029700024F4005444EA0534084DA84202D0084D1E
:10298000A84204D14D6922F4804242EA8512426095
:10299000C36149680164046230BD00000000014069
:1029A0000004014010B5036A046A24F001040462C3
:1029B000846924F0F00444EA021423F00A020A4372
:1029C0008461026210BD10B5036A046A24F0100429
:1029D0000462846923F0A00324F4704444EA0232C0
:1029E00043EA01118261016210BD10B5806B0021C4
:1029F000C185FFF76FF810BD70B5846B2068406922
:102A000094F84110C0F3C0100025212904D118B159
:102A1000E584204600F08EF82068406994F8421062
:102A2000C0F38010222904D118B1E585204600F0BA
:102A30005AF8606C40F0100060642046FFF74AF8D6
:102A400070BD10B50146806B096809684FF000023F
:102A5000C9052ED4C28501680C3151E8003F23F42A
:102A6000807341E80034002CF5D10168143151E83D
:102A7000003F23F0010341E80034002CF5D1016848
:102A8000143151E8003F23F0400341E80034002CAA
:102A9000F5D1202180F84210016B012909D101688C
:102AA0000C3151E8003F23F0100341E80034002CC2
:102AB000F5D14263016B012902D0FFF725FA10BD61
:102AC000818DFEF7EDFF10BD10B5806B01214163D4
:102AD000016B012902D0FFF74FFA10BD818D490823
:102AE000FEF7DEFF10BD01680C3151E8002F22F423
:102AF000907241E80023002BF5D10168143151E8B0
:102B0000002F22F0010241E80023002BF5D1016BD8
:102B1000012909D101680C3151E8002F22F010027F
:102B200041E80023002BF5D1202180F8421000213C
:102B30000163704701680C3151E8002F22F0C00298
:102B400041E80023002BF5D1202180F84110704787
:102B500008B590F84210222901D0022008BD8268F1
:102B60004FF480539A4201D1016921B1816A9A429E
:102B70001BD04AB10AE00268816A5268C2F30802B7
:102B80000A80816A891C08E0026972B10268526891
:102B900002F07F020A70816A491C8162C18D491E60
:102BA0000904090CC18503D01BE002685268F1E7F3
:102BB0000168CA6822F02002CA600168CA6822F46B
:102BC0008072CA6001684A6922F001024A612021CC
:102BD00080F8421000214163026B012A03D0FFF705
:102BE00093F9002008BD016301680C3151E8002F02
:102BF00022F0100241E80023002BF5D101680A6899
:102C0000D20602D50A6849680091818DFEF748FF17
:102C1000E7E7000070B5044600680169E26821F446
:102C20004051114301612169A068E269084361696B
:102C3000114308432168CA6849F20C639A4302436E
:102C4000CA6020684169A26921F440711143416161
:102C500031492068884202D03049884202D1FEF7CB
:102C60009BF901E0FEF788F9E26900231921642548
:102C70003226B2F5004F626828D0A0FB0101930F05
:102C80009200FDF751FB0146B0FBF5F06FF0180222
:102C9000504301EB800006EB0010B0FBF5F000F0B4
:102CA000F002B1FBF5F002EB0012B1FBF5F06FF0B2
:102CB0001803584301EB800006EB0010B0FBF5F061
:102CC00000F00F0021681044886070BDA0FB010176
:102CD00092185B41FDF728FB0146B0FBF5F00201BD
:102CE000B1FBF5F06FF01803584301EB800006EBE1
:102CF000C000B0FBF5F000F0F80002EB4002B1FBC1
:102D0000F5F0584301EB800006EBC000B0FBF5F096
:102D100000F00700D6E70000001001400014014059
:102D200038B5816204468285002013466064222201
:102D300084F84220E56B1F4AEA63E56B1E4A2A6469
:102D4000E56B1E4AEA64E26B10650A462168E06B97
:102D5000091DFDF70FFE30B110206064202084F8BB
:102D60004200012038BD2068016840680090206959
:102D700048B120680C3050E8001F41F4807140E8F1
:102D80000012002AF5D12068143050E8001F41F0ED
:102D9000010140E80012002AF5D12068143050E803
:102DA000001F41F0400140E80012002AF5D1002048
:102DB00038BD0000432A0008C92A0008F929000884
:102DC00081628285C28500214164222180F84210FF
:102DD000016921B10168CA6842F48072CA60016861
:102DE0004A6942F001024A610068C16841F020016D
:102DF000C1600020704700000148FEF783BE00005C
:102E0000800300200148FEF77DBE0000C8030020BB
:102E1000FEE70907090E002804DB00F1E02080F836
:102E20000014704700F00F0000F1E02080F8141D3E
:102E30007047D0ED000AF4EEC00AF1EE10FA01DDA1
:102E400080ED000AD0ED000AB1EE400AF4EEC00AAF
:102E5000F1EE10FA01D280ED000A704710B59FED37
:102E6000181A9FED190A00232DED028B40F6B83297
:102E70009FED148A03211548F0EE480AFFF7AAFBDC
:102E80001348B0EE481AF0EE480A90ED050A0F48D4
:102E900032234FF47A7203216C30FFF79BFBB0EEC4
:102EA000481AF0EE480ABDEC028B00230748642262
:102EB0000321BDE81040B2EE080AD830FFF78ABB04
:102EC0000000FA43000000000000F042E00400208F
:102ED0002C000020FDF7D4FEFFF7C0FBFFF722F91E
:102EE000FFF7ECF8FFF7E4F9FFF766F9FFF7FCF9F5
:102EF000FFF73EFAFFF7B2FF012207490748FEF746
:102F0000F5FF0B2206490748FEF7A4FDFFF7ECF892
:102F100000F031F8FEE700000A000020C80300209E
:102F2000C4000020800300202DED028B094C9FED92
:102F30000A8A2078012809D0B0EE480AF0EE400A4B
:102F4000FFF72EFA0A2000F00FF8F2E700F06CFA13
:102F5000F8E700000B000020000000000146002000
:102F6000842900D0C81C704710B500B9012000F0BA
:102F7000D5FB002010BD10B500F0F6FB002010BD01
:102F80007FB50D4604464169B0F9080081B1A169D9
:102F900071B1FFF7E3FFD4E905128DE80700D4E92A
:102FA00000102B46226900F0F2FC039004B070BDC3
:102FB000FFF7D4FF03A9CDE90001208A2B4682B296
:102FC000D4E9001000F0B6FC012801D00020EDE7A4
:102FD0000398EBE72DE9F041184C0F460546E668EB
:102FE0002068001D00F0D2FA38B9206890F82C1043
:102FF00001208840216981432161681C07D137B1D4
:103000002168BDE8F0410E48091D00F003BB2068AF
:103010003544B5424560216805D2A06BBDE8F0415A
:10302000091D00F0DFBA606B091D00F0DBFAA06A31
:10303000854200D2A562BDE8F08100005C0000205E
:10304000000700202DE9F041054600F0EFFA2E4C74
:10305000A068401CA06020682C4F10B1606940B38C
:103060002DE02560A068012829D1002606EB860006
:1030700007EB800000F0A8FA761C072EF6D3234851
:103080008C3000F0A1FA2148A03000F09DFA1F48D2
:10309000B43000F099FA1D48C83000F095FA1B488A
:1030A000DC3000F091FA19488C3060631430A06372
:1030B00005E02068E96AC06A884200D82560606A35
:1030C000401C6062E96A0120226988401043206147
:1030D00001EB810007EB8000291D00F09BFA00F056
:1030E000C5FA606900280CD02068E96AC06A884285
:1030F00007D207494FF080500860BFF34F8FBFF3EE
:103100006F8FBDE8F08100005C00002024060020E5
:1031100004ED00E010B5044690F8510058B10128C4
:103120000CD002280FD0502080F31188BFF34F8FAE
:10313000BFF36F8FFEE7206B00F0ACFA2046BDE8CE
:10314000104000F0A7BA10BD10484FF4705142076C
:1031500006D0C01D0D4920F00700411AC1F570517D
:103160000B4A00230144C2E900030839183A21F050
:10317000070111604B600B600B1AC0E900139360EC
:103180004FF000405360506170470000140700206A
:10319000B0000020144E154CA6F1C8074FF080581F
:1031A000DFF84C9012E000BF00F040FAF068C5680C
:1031B000281D00F0EBF9A068401EA0606068401E6A
:1031C000606000F053FA2846FFF7A4FF606800280B
:1031D000EAD138680128F9D9C9F80080BFF34F8FC8
:1031E000BFF36F8FF2E70000EC0600205C000020C8
:1031F00004ED00E02DE9F0479A46DDE909848146B7
:103200006FF00303206B03EB82021044089E20F052
:103210000707780707D0502080F31188BFF34F8F3E
:10322000BFF36F8FFEE7002561B1002023180A5C11
:1032300083F834200A5C12B1401C1028F6D384F8BD
:10324000435001E084F83450072E00D30626E6628E
:10325000C4E91165201D00F0C2F904F1180000F066
:10326000BEF92461C6F107006462A061E56484F8D8
:10327000505052464946384600F0C0F82060B8F138
:10328000000F01D0C8F80040BDE8F08730B5114903
:1032900000E011460A688242FBD34B685C18844206
:1032A00003D1406818444860084643681C1894429B
:1032B00009D1084C183C2468A24209D052681A442B
:1032C00042600A6812680260814200D0086030BD26
:1032D0000460F9E7B00000200648416B096829B195
:1032E000416BC968C9684968816270474FF0FF3116
:1032F000FAE700005C00002008484068401C4FF0DE
:10330000500080F3118804D0BFF34F8FBFF36F8F4D
:10331000FEE7BFF34F8FBFF36F8FFEE7B8000020CB
:103320002DE9F0410546002700F054FA324E30688E
:1033300008B9FFF709FF706905424ED1C5B30835DA
:1033400068070ED005F00700C0F1080005446807C3
:1033500007D0502080F31188BFF34F8FBFF36F8FDA
:10336000FEE72DB37068854237D8234818300146F0
:103370000C6801E020460C466168A94202D221682F
:103380000029F7D131688C4227D007682168016095
:1033900060680837411B10290FD96019420708D00F
:1033A000502080F31188BFF34F8FBFF36F8FFEE77C
:1033B00013E041606560FFF769FF61687068401A5B
:1033C0007060B268904200D2B06070690143002022
:1033D000C4E90001F068401CF06000F069FB780768
:1033E00007D0502080F31188BFF34F8FBFF36F8F4A
:1033F000FEE73846BDE8F0819800002010B5031FB5
:103400004FF080741C601B1F21F001011960191F0F
:10341000044B0B6014390A60091F6FF00202443834
:103420000A6010BDF932000870B54D4C4D492DEDC4
:10343000048BE068884202DBB2EE040A04E04A49E9
:10344000884203D3BAEE040A84ED030AFDF7E6F8D6
:1034500040426080FDF7ECF8404200B2A080E0807E
:10346000642801DD0020E080B4F9060094ED068AAE
:1034700000EE100A3D4DDFED3E8AB8EEC00A30EE98
:10348000480AB0EEC00A10EE101AA9421BDA00F08A
:103490004BFC9FED381B53EC112B00F05DFC41EC15
:1034A000190B18EE100A00F03FFE9FED341B53EC91
:1034B000112B00F051FC53EC192B00F08DFB00F0A8
:1034C00059FBA06101E0C4ED068A2E4890ED010A87
:1034D00090ED028AB1EE400AF0EEC00A10EE900ABA
:1034E000A84204DBB0EE680AF0EE400A32E025485C
:1034F000D4ED040A2830FEF781FF2248283090EDF1
:103500000F0A6C3084ED070AD4ED030A94ED060A25
:10351000FEF774FF1B48943090ED0F0A6C3084ED79
:10352000080AD4ED020AB0EE480AFEF767FF164813
:1035300090ED0F0A84ED090A94ED070AD4ED080A0C
:10354000B4F9000070EE200A00EE100AB8EEC00ACE
:1035500030EE800ABDEC048BBDE87040FEF720BF62
:103560002C00002000002041000020C10000F0419C
:1035700000000000333333333333D33F666666666F
:103580006666E63FB8040020B8050020D0E90132A5
:1035900001699A60D0E901235A604A68824201D1E8
:1035A00082684A60002202610868401E086008685C
:1035B00070470000034B036003F154000860802053
:1035C00010607047E400002000F108014FF0FF3266
:1035D000C0E90112C1600161002101607047002152
:1035E0000161704730B50B685A1C02D000F1080227
:1035F00002E0026904E02246546825689D42FAD937
:1036000053684B6099608A60516008610168491C89
:10361000016030BD42684A6093688B60936859606E
:10362000916008610168491C01607047502080F377
:103630001188BFF34F8FBFF36F8F0A494868401C52
:10364000486001280CD10848006810F0FF0F07D02F
:10365000502080F31188BFF34F8FBFF36F8FFEE7C9
:1036600070470000B800002004ED00E008494868F9
:1036700028B1401E486001D180F311887047502066
:1036800080F31188BFF34F8FBFF36F8FFEE7000009
:10369000B800002070B500282AD0164DA0F108040B
:1036A00060686969084207D1502080F31188BFF330
:1036B0004F8FBFF36F8FFEE722683AB1502080F33F
:1036C0001188BFF34F8FBFF36F8FFEE788436060B1
:1036D00000F080F860686968084468602046FFF779
:1036E000D5FD2869401C2861BDE8704000F0E0B9B4
:1036F00070BD0000980000204FF0E0200021016123
:10370000816105494FF47A720968B1FBF2F1491EF3
:1037100041610721016170472400002010B50200BB
:1037200014D00F48006B38B1502080F31188BFF3DC
:103730004F8FBFF36F8FFEE700F04CF8002110466B
:10374000FFF748FC00F0B4F9002807D105494FF015
:1037500080500860BFF34F8FBFF36F8F10BD000024
:103760005C00002004ED00E010B586B00024039456
:1037700005AA04A903A80494FFF71CFFDDE90301CF
:103780000094CDE9011000230EA11048059A00F025
:10379000FEF80F490028C86211D0502080F311882C
:1037A000BFF34F8FBFF36F8F4FF0FF308862012060
:1037B0004861CC6006B0BDE8104000F041B806B0EA
:1037C00010BD000049444C45000000009531000840
:1037D0005C0000200248016B491C01637047000037
:1037E0005C0000201448016B11B10121C1617047D8
:1037F0000021C1610169B1FA81F1C1F11F0101EB41
:1038000081020E4951F822306BB101EB820101F1C6
:1038100008034A6852684A609A4201D152684A6075
:10382000D16801607047502080F31188BFF34F8F3B
:10383000BFF36F8FFEE700005C000020240600202D
:103840001CB537480168374A914207D1502080F3B0
:103850001188BFF34F8FBFF36F8FFEE700683149C8
:10386000491E884207D1502080F31188BFF34F8F43
:10387000BFF36F8FFEE72C4908780190FF20087096
:1038800008788DF800009DF800009DF8002000F0F9
:10389000F000904207D0502080F31188BFF34F8F83
:1038A000BFF36F8FFEE79DF80000204C00F0500042
:1038B00020700720A06005E09DF8002052008DF8E0
:1038C0000020401E9DF800201206F5D4A0600328B9
:1038D00007D0502080F31188BFF34F8FBFF36F8F55
:1038E000FEE74FF44070A060019808700C4820304B
:1038F000016841F470010160016841F070410160AC
:10390000FFF7FAFE00206060FCF7B2FC084801688F
:1039100041F040410160FCF797FC00201CBD000015
:1039200000ED00E071C20F4100E400E0B8000020AB
:1039300034EF00E02DE9FF5F8346DDE90E8799460D
:1039400016468A469000FFF7EBFC05001CD0542079
:10395000FFF7E6FC040014D00020256384F8510032
:10396000CDE90240CDE900874B46324651465846E4
:10397000FFF740FC2046FFF765FB012004B0BDE8DF
:10398000F09F2846FFF786FE4FF0FF30F6E7F0B5D0
:1039900085B0DDE90B640A9DA6B1DCB15427009720
:1039A0002663022684F85160002604AFCDE9024662
:1039B000CDE90057FFF71EFC2046FFF743FB0498B4
:1039C00005B0F0BD502080F31188BFF34F8FBFF3D7
:1039D0006F8FFEE7502080F31188BFF34F8FBFF346
:1039E0006F8FFEE72DE9F0412F4C0026206B28B1A8
:1039F000A069401CA0613046BDE8F081E5686D1CFF
:103A0000E56013D1606B006838B1502080F31188F5
:103A1000BFF34F8FBFF36F8FFEE7606BA16B6163E6
:103A2000A063206A401C2062FFF756FCA06ADFF802
:103A30007C80854209D3606B0068A0B1606BC06870
:103A4000C7687868854211D2A0622068C06A00EB1E
:103A5000800158F82100012800D90126E0690028DA
:103A6000C9D00126C7E74FF0FF30EDE7381DFFF75B
:103A70008DFDB86A18B107F11800FFF787FDF96AE4
:103A80000120226988401043206101EB810108EB8D
:103A90008100391DFFF7BEFDF86A2168C96A8842B6
:103AA000C9D30126C7E700005C00002024060020DF
:103AB0002DE9F0472C4D00242746286B38B1FFF73D
:103AC000B5FD286B401E2863286B40B146E05020AE
:103AD00080F31188BFF34F8FBFF36F8FFEE7A968A4
:103AE000224E0120D1B3A6F1B40980463068E8B176
:103AF000F068C46804F11800FFF748FD201DFFF7C7
:103B000045FDE06A2A6908FA00F11143296100EBDA
:103B1000800109EB8100211DFFF77CFDE06A296827
:103B2000C96A8842E2D3C5F81C80DFE70CB1FFF711
:103B3000D3FBAC6944B14646FFF754FF00B1EE61D8
:103B4000641EF9D10020A861E86938B1084901274D
:103B500038070860BFF34F8FBFF36F8FFFF786FD05
:103B60003846BDE8F08700005C000020D806002041
:103B700004ED00E021F00042A2F16052B2F5801F96
:103B800001F0004328BFD2F17F6C0BD95FEA001C23
:103B900043EAC20242EB507018BF704728BF20F0C2
:103BA00001007047B2F5801FBCBF184670474FEA4E
:103BB000410C1CF5001F02D2084600F02BBB70B56B
:103BC00000F074F900000089FFF7F6BF4FF00040E5
:103BD000A0F580007047000010B591EA030F48BFC0
:103BE00083F0004300F1BE81841A71EB030C05D20F
:103BF000121943EB0C03001B61EB0C01DFF824E10D
:103C00004FEA1154A4EB135C1EEA430F18BF9EEA5F
:103C1000445F73D023EA0E03DCF1200E21EA045145
:103C200043F4801332D322FA0CFE10EB0E0023FA79
:103C30000CFE41EB0E01CCF1200E03FA0EFE10EB50
:103C40000E0051F10001B1F5801FCCF1200E32D2EF
:103C500001EB045112FA0EF2BDE8104058BF704754
:103C6000401C38BF5FEA420218BF7047002814BFEB
:103C700020F0010041F100014FEA410313F5001F5C
:103C800038BF7047A1F1C04100F05EB9012A43EB93
:103C90000302ACF1200CDCF11F0E32BF4FF0000E1E
:103CA00023FA0CF310EB030041EB0451B4EB115F6A
:103CB000D0D0A1EB045101F5801149085FEA300032
:103CC00001EB04510ED350F1000038BF12FA0EFE82
:103CD00008D1BDE81040C9E7401C38BF5FEA420286
:103CE000CAD1C3E7BDE810404FEA410313F5001FF6
:103CF00038BF7047A1F1C04100F026B99EEA445F89
:103D000008D011EA5E0FBDE8104004BF01F0004189
:103D100000207047BDE8104070B500F0C7F800BF44
:103D200064FBBE3E0000E0FF10F0004248BF40428E
:103D3000B0FA80F310FA03F10AD0C3F11D0303F5C2
:103D400080634FEA415002EB035202EBD1217047EE
:103D50004FF0000070470000DFF848C170B51CEA62
:103D6000111E1EBF1CEA13159EEA0C0F95EA0C0FDC
:103D700000F06F8081EA030423EA4C134EEAD47EFC
:103D800021EA4C1141F4801143F48013AE44A1FBAD
:103D9000024CA0FB0365AEF17F7E361955EB0C0596
:103DA000A1FB034C4CF10003A0FB021C16EB0C061C
:103DB000654153F10003094218BF46F0010613F4B0
:103DC000007F0BD14FEA03314FEA0530340341EA5B
:103DD000155140EA16506FF003020AE04FEAC32182
:103DE0004FEAC520F40241EA555140EA56506FF0BF
:103DF000020202EB2E4201EB025585EACE710AD097
:103E00005FEA440C18BF24F0004450F1000041F177
:103E1000000120EAD47040F2FE7C624500D270BD01
:103E2000A84214BF4FF080444FF04044002E08BF1A
:103E30000024BEF1806FA8BFA1F1C041BDE8704071
:103E400080F282804FF0000001F1C04101F000419A
:103E500070479EEA0C0F0CEA131518BF95EA0C0F79
:103E600006D04FF0000081EA030E0EF0004170BD55
:103E700000F01CF88900013E00F007B800F009B816
:103E80004FEA430C5FEA5C5C08D081EA030100F072
:103E90005BB84FEA410C5FEA5C5CF6D14FF0000082
:103EA000014970470000FF070000F87F0EF1020E85
:103EB0002EF0030E5EF8046B364205D4012A43EB64
:103EC000030515F5001F12D8012841EB010C1CF564
:103ED000001F0CD80ED14FEAD17C15F5001F0CEB5A
:103EE0004C0C0CF1020C08BF4CEBD37C04E04FF0FF
:103EF000080C01E04FEAD37C0CEB4C0526FA05F6E2
:103F000006F00706B6F1040C06D20EEB860CBDE8EF
:103F100070404CF0010C6047DFE80CF0090B020226
:103F20004FF000414FF00000A1F5002170BD19468F
:103F30001046012851EB010418BFD4F5001484BFCA
:103F4000002001F0004170BD0808A0F500114FEA03
:103F50003101704710B591EA030F48BF83F0004369
:103F60003FF542AE841A71EB030C07D212198CF0A4
:103F7000004C43EB0C03001B61EB0C01DFF8A4E1E8
:103F80004FEA1154A4EB135C1EEA430F18BF9EEADC
:103F9000445F00F0B08023EA6E03524221EA0451EC
:103FA000C3EB6E0338BF5B1EDCF1200E25D322FA73
:103FB0000CFE10EB0E0043FA0CFE41EB0E01CCF1AF
:103FC000200E03FA0EFE10EB0E0051F10001CCF1B1
:103FD000200E29D412FA0EF201EB0451BDE8104074
:103FE00058BF7047401C1CBFB2F1004F70470028FB
:103FF0000CBF491C20F00100704712EB020E43EB8E
:10400000030218BF4FF0010E4EEA4202ACF1200C41
:10401000DCF11E0E54D943FA0CFE10EB0E0051F1E8
:10402000FF31CCF11E0ED5D50EF1010E12FA0EFEA7
:10403000404141EB010101EB445C5FEA5C5C10D95B
:1040400010EBDE7001EB045138BFBEF1004FBDE84C
:10405000104018BF704700280CBF491C20F0010019
:10406000704730D24FEAD42C11F5001124F40064CB
:104070001BD0B1FA81F20B3AA41AA41ED2F120038C
:10408000914030FA03F31943904001EBCC71002CBE
:1040900001EB0451BDE81040A8BF704701F1C041D9
:1040A0004FF0000001F000417047B0FA80F310FAC1
:1040B00003F100D110BDE41A173C4805C90AE4E732
:1040C00001EB045110BD491001EB0451BDE8104053
:1040D0004FEA300002E04FF0000170474A0008BF8D
:1040E0000042F8D0B2F5001F28BF704701F0004130
:1040F0004FF0000070479EEA445F07D011EA5E0F60
:10410000BDE8104004BF002100207047BDE810400A
:1041100070B5FFF7CBFE00BF40DFF63E83F00041F5
:10412000104670470000E0FF43004FEAD30C4FEA0F
:104130003C0C43401FBF40070CF1605113F0FE4F91
:1041400070471CF0006F03D100200CF00041704755
:104150000CF0004343EA507010B540EACC0000F088
:104160000EF800BF000000924FEA0001FFF7ECBE1E
:104170004FF000414FF00000A1F5002170470EF113
:10418000020E2EF0030E5EF8044B244204D44FEAD4
:104190004102B2F17F4F11D84FEA4003B3F17F4F94
:1041A0000CD80ED14FEAD07CB2F17F4F0CEB4C0C07
:1041B0000CF1020C08BF4CEBD17C04E04FF0080C72
:1041C00001E04FEAD17C0CEB4C0324FA03F404F039
:1041D0000704B4F1040C06D20EEB840CBDE81040C9
:1041E0004CF0010C6047DFE80CF0070802024FF0CA
:1041F0000040A0F5800010BD0846420018BFD2F173
:10420000807288BF00F0004010BD4FF04070E1EEBA
:10421000100A7047FF2141EAD050C00570470000E6
:1042200078420008ED2500080000000000000000B2
:104230008000000000000000000000008442000830
:10424000292F0008FDFF0000000000000001000011
:104250000000000000000000000610160006101606
:104260000000000000000000010203040607080926
:10427000000000000102030464656661756C7454FB
:1042800061736B0070726F6365737300AC420008FA
:1042900000000020C4000000C401000870430008B2
:1042A000C4000020B4480000E00100080000000045
:1042B00000000000000000000000000000000000FE
:1042C00000000000010000001000000000000000DD
:1042D0000024F400AA0F0000CEFF00000000000040
:1042E0000000000000000040CDCCCC3D0000A0410B
:1042F00000000000000000000000000000000000BE
:1043000000000000000000000000000000000000AD
:10431000000000000000000000000000000000009D
:10432000000000000000000000000000000000008D
:10433000000000000000000000000000000000007D
:10434000000000000000000000000000000000006D
:10435000000000000000000000000000000000005D
:104360000000000000000000AAAAAAAA00000000A5
:040000050800018965
:00000001FF
